:020000021000EC
:10000000A8120120EDA40100CD800300A5A40100E9
:10001000A5A40100A5A40100A5A40100A5A40100B8
:10002000000000000000000000000000F594010046
:10003000A5A401000000000091940100A5A4010006
:100040008D9501008D9501008D9501008D95010024
:100050008D9501008D9501008D9501008D95010014
:100060008D9501008D9501008D9501008D95010004
:100070008D9501008D9501008D9501008D950100F4
:100080008D9501008D9501008D9501008D950100E4
:100090008D9501008D9501008D9501008D950100D4
:1000A0008D9501008D9501008D9501008D950100C4
:1000B0008D9501008D9501008D9501008D950100B4
:1000C0008D9501008D9501008D9501008D950100A4
:1000D0008D9501008D9501008D9501008D95010094
:1000E0008D9501008D9501008D9501008D95010084
:1000F0008D9501008D9501008D9501008D95010074
:100100008D9501008D9501008D9501008D95010063
:100110008D9501008D9501008D9501008D95010053
:100120008D9501008D9501008D9501008D95010043
:100130008D9501008D9501008D9501008D95010033
:100140008D9501008D9501008D9501008D95010023
:040150008D95010088
:04015400FFFFFFFFAB
:1001580053B94AB9002908BF00281CBF4FF0FF3126
:100168004FF0FF3000F00CB8ADF1080C6DE904CE8B
:1001780000F008F8DDF804E0DDE9022304B0704778
:10018800704700BF2DE9F04786468C460846089E12
:10019800154674461946002B40F0C1808542B2FAD4
:1001A80082F245D94AB1C2F1200300FA02FC954017
:1001B80094402EFA03F343EA0C0C4FEA154EA8B20A
:1001C800230CBCFBFEF80EFB18CC08FB00F943EA35
:1001D8000C43994528D9EB1808F1FF3704D2994503
:1001E80002D9A8F102072B44A3EB0903A4B2B3FB7D
:1001F800FEFC0EFB1C330CFB00F044EA0344A04257
:1002080014D92C190CF1FF3304D2A04202D9ACF155
:1002180002032C44241A43EA07401EB1D4400023A9
:1002280034607360BDE8F0874746DDE76346F1E771
:1002380092BB431B01214FEA154EAFB2200CB3FB12
:10024800FEFC0EFB1C330CFB07F840EA0343984501
:1002580061D9EB180CF1FF3004D2984502D9ACF102
:1002680002002B44A3EB0803A4B2B3FBFEFC0EFB75
:100278001C330CFB07F744EA0344A7424DD92C1959
:100288000CF1FF3304D2A74202D9ACF102032C448B
:10029800E41B43EA0040C0E7C2F1200395409440C4
:1002A80020FA03F12EFA03F34FEA154E9040AFB24D
:1002B8000343B1FBFEFC0EFB1C10190C0CFB07F8EA
:1002C80041EA0041884522D969180CF1FF3004D26F
:1002D800884502D9ACF102002944A1EB08019BB280
:1002E800B1FBFEFC0EFB1C110CFB07F743EA0143B4
:1002F8009F420ED9EB180CF1FF3104D29F4202D96C
:10030800ACF102012B44DB1B41EA004193E7604654
:10031800E3E76146F7E76046A4E76346B8E7834248
:1003280006D916B9002108467CE7C6E900E0F9E7D6
:10033800B3FA83F78FB9834201D3724508D8BEEB6D
:10034800020460EB030301209C461EB9002169E703
:100358003846FAE7C6E9004CF8E7C7F1200CBB407D
:100368000EFA07F522FA0CF42EFA0CF1BA401C43E7
:1003780020FA0CF3B8404FEA144901431FFA84FEEF
:10038800B3FBF9F809FB18300B0C08FB0EFA43EA2B
:1003980000439A4540D9E31808F1FF3004D29A4542
:1003A80002D9A8F102002344A3EB0A0389B2B3FBE4
:1003B800F9F809FB183308FB0EFE41EA03418E45A4
:1003C8002CD9611808F1FF3304D28E4502D9A8F15F
:1003D8000203214443EA0040A1EB0E01A0FB02986E
:1003E8004145CE46434602D306D14D4504D2013895
:1003F800B9EB020E68EB0403002EA7D0B5EB0E0292
:1004080061EB030101FA0CFC22FA07F3F9404CEA0C
:100418000303C6E9003199E74046C5E74346D9E7F3
:1004280010B5082140F601400CF03CF8D8B104465C
:1004380008210C3019F050FA02460F4B93F8D030CF
:1004480013F0010F0BD10D484FF0005128F0F8F8C8
:100458000022214640F601400CF076F810BD04A1B8
:10046800D1E90001F2E76FF06800F7E7AFF3008029
:100478009088000200800020008000201088000280
:1004880003783BB9064B1B78DBB2022B03D0044B35
:1004980000221A707047034B01221A70F7E700BF59
:1004A800A9CA0020A8CA002070B5856846680469F2
:1004B80012F0FC6F32D1134602F03002302A3DD0E0
:1004C80003F00212022A49D003F00602042A55D08A
:1004D80013F4402202D013F4003F5CD0B2F5402F51
:1004E80069D013F4801F05D022B113F0010F01D099
:1004F80083F4402323F4801236684FF0010C0CFA81
:1005080001FC16EA0C0F66D013F0010F73D02368B4
:100518004CEA030323602B68984770BD384C4FF4AE
:100528002D7322463749384825F0B0FE374825F064
:10053800ADFE4FF42D71204625F0A1FE304C40F25F
:10054800B72322463249304825F0A0FE314825F02D
:100558009DFE40F2B721204625F091FE284C40F23E
:10056800BB2322462C49284825F090FE2B4825F02D
:100578008DFE40F2BB21204625F081FE204C40F242
:10058800BF2322462649204825F080FE40F2BF219D
:10059800204625F074FE1A4C40F2C2232246214917
:1005A800194825F073FE204825F070FE40F2C2215C
:1005B800204625F064FE124C40F2C62322461B4911
:1005C800114825F063FE1A4825F060FE40F2C62166
:1005D800204625F054FE0A4C40F2D2232246154903
:1005E800094825F053FE144825F050FE40F2D22168
:1005F800204625F044FE236823EA0C0323608AE79B
:10060800B8F6030060F703002CF70300C0F70300F7
:10061800E4F7030020F8030060F8030098F80300EB
:10062800ECF8030020F9030068F90300A4F90300BB
:10063800E8F90300ECF603004CF7030010B5436833
:100648001C68012303FA01F10C4204D09AB18368B3
:10065800DB68984710BD0A4C40F2145322460949FA
:10066800094825F013FE094825F010FE40F2145100
:10067800204625F004FE83681B699847EAE700BF17
:10068800B8F60300ECF603002CF703004CF7030060
:1006980038B5436805691C6801238B401C4208D0A3
:1006A8002C68234202D0B2FA82F25209FFF7C6FF41
:1006B80038BD084C40F23D5322460749074825F00B
:1006C800E5FD074825F0E2FD40F23D51204625F0C2
:1006D800D6FD00BFB8F60300ECF603002CF70300C4
:1006E8004CF70300084B1B686BB110B5074C227818
:1006F80082F0010219791868FFF7CAFF237883F09E
:100708000103237010BD7047E8BD0020A7CA002070
:1007180070B584684568066902F4C003B3F5C00F74
:100728001ED06BB302F0E863B3F1C86F38D002F0A3
:10073800C863B3F5800F43D02D6801238B401D4259
:100748004ED012F4000F04D035682B4201D082F04D
:10075800C062A46902F0C06302F0B072A04770BD25
:10076800274C40F2612322462649274825F08EFD72
:10077800264825F08BFD40F26121204625F07FFDBB
:100788001F4C40F26523224621491F4825F07EFD73
:10079800204825F07BFD40F26521204625F06FFDBD
:1007A800174C4FF41A7322461B49174825F06EFD63
:1007B8001A4825F06BFD4FF41A71204625F05FFDAD
:1007C8000F4C40F26F23224615490F4825F05EFD75
:1007D800144825F05BFD40F26F21204625F04FFDBF
:1007E800074C4FF41D7322460F49074825F04EFD6C
:1007F8000E4825F04BFD4FF41D71204625F03FFDB6
:10080800B8F6030014FA03002CF7030058FA0300A3
:1008180084FA0300B0FA0300DCFA030060FB03006B
:10082800B4FB030000FC0300ECF603004CF70300E4
:1008380010B518B191B14160826010BD0F4C40F203
:10084800855322460E490F4825F020FD0E4825F015
:100858001DFD40F28551204625F011FD074C40F260
:10086800865322460949074825F010FD084825F017
:100878000DFD40F28651204625F001FDB8F6030033
:1008880048FC03002CF7030054FC0300244904002F
:100898007CFC030000B589B01748184B18602DF090
:1008A800BAFF10B109B05DF804FB154B079302239A
:1008B8008DF8043000238DF805308DF806308DF85A
:1008C8000730019A0692194663F3000163F3410168
:1008D80063F3820163F3C501012262F388110822E0
:1008E80062F3522163F3DE4163F3DF7106AA054820
:1008F80006F028F8D6E700BF44F0030000BE002049
:10090800ACFC030090F40300F0B58BB004460D4630
:1009180016460378032B2CD8DFE803F0021C2126A7
:10092800174907A827F0EBFC63792279E178A078CA
:1009380067780DF11C0CCDF814C004970390029150
:1009480001920093A3790F4A3146284625F05BF8B7
:100958000BB0F0BD0C4907A827F0D1FCE4E70B4920
:1009680007A827F0CCFCDFE7094907A827F0C7FC50
:10097800DAE7084A0A2107A825F045F8D4E700BFB6
:10098800CCFC0300F4FC0300D4FC0300DCFC0300F3
:10099800E8FC030018430400F0B58BB000AF0D4627
:1009A800144628F016FD1E2207F10801FFF7ACFFD8
:1009B800002C5AD16E4600233B7102237B718AB00A
:1009C8006C4614F1100217D012201AB1042801DD68
:1009D800564B636100233B7002237B70CAB1034608
:1009E800082802DD07F10801A1610C2B00DDE56193
:1009F80004F1200300210AE06FF00040E5E701F16F
:100A080028053D4415F8285C03F8015B01310129EC
:100A1800F5D9112826DD122342B1042139710021AC
:100A28007971B9710121F9717868206100216FF33A
:100A380000016FF341016FF382016FF3C5010320D9
:100A480060F38811C3F3090363F352216FF3DE41A6
:100A58006FF3DF710023364805F074FFB5462C3775
:100A6800BD46F0BD6FF01B03D6E76E4600233B7111
:100A780002237B718AB0EC461CF110021ED01620AE
:100A880022B1042802DD2B4BCCF8143000233B7034
:100A980002237B70FAB10346082803DD07F1080139
:100AA800CCF818100C2B01DDCCF81C50102B01DDF4
:100AB800CCF820400CF1240300210AE06FF000403C
:100AC800DEE701F128043C4414F8284C03F8014BF4
:100AD80001310129F5D9152825DD16234AB105214B
:100AE800397100217971B9710121F9717868CCF8EF
:100AF800100000216FF300016FF341016FF38201D1
:100B08006FF3C501022060F38811C3F3090363F38F
:100B180052216FF3DE416FF3DF710023044805F0C3
:100B280011FFB5469BE76FF01B03D7E718FD0300DD
:100B380090F4030038FD030090B58BB000AF0C466D
:100B480028F047FC1E2207F10801FFF7DDFE00230D
:100B58003B7102237B718AB0EC461CF110021AD05B
:100B6800122022B1042802DD274BCCF814300023D0
:100B78003B7002237B70DAB10346082803DD07F1D6
:100B88000801CCF818100C2B01DDCCF81C400CF136
:100B9800200300210AE06FF00040E2E701F1280499
:100BA8003C4414F8284C03F8014B01310129F5D9CC
:100BB800112826DD12234AB10421397100217971E7
:100BC800B9710121F9717868CCF8100000216FF330
:100BD80000016FF341016FF382016FF3C501032038
:100BE80060F38811C3F3090363F352216FF3DE4105
:100BF8006FF3DF710023054805F0A4FE2C37BD46CE
:100C080090BD6FF01B03D6E75CFD030090F4030072
:100C180090B58BB000AF0C4628F0DBFB1E2207F125
:100C28000801FFF771FE00233B7102237B718AB034
:100C3800EC461CF110021AD0122022B1042802DD61
:100C4800274BCCF8143000233B7002237B70DAB1B9
:100C58000346082803DD07F10801CCF818100C2B0F
:100C680001DDCCF81C400CF1200300210AE06FF0F4
:100C78000040E2E701F128043C4414F8284C03F84A
:100C8800014B01310129F5D9112826DD12234AB17A
:100C98000421397100217971B9710121F9717868DC
:100CA800CCF8100000216FF300016FF341016FF3DE
:100CB80082016FF3C501032060F38811C3F30903B0
:100CC80063F352216FF3DE416FF3DF7100230548B0
:100CD80005F038FE2C37BD4690BD6FF01B03D6E7F4
:100CE80080FD030090F4030080B58AB000AF28F0BF
:100CF80070FB1E2207F10801FFF706FE00233B7177
:100D080002237B7188B0EC461CF1100215D00E202E
:100D180022B1042802DD254BCCF8143000233B70A7
:100D280002237B70B2B1082803DD07F10803CCF871
:100D380018300CF11C0300210AE06FF00040E7E7CF
:100D480001F1280EBE441EF828EC03F801EB01312E
:100D58000129F5D90D2826DD0E234AB10321397161
:100D680000217971B9710121F9717868CCF8100006
:100D780000216FF300016FF341016FF382016FF3FC
:100D8800C501032060F38811C3F3090363F35221FB
:100D98006FF3DE416FF3DF710023054805F0D2FDE4
:100DA8002837BD4680BD6FF01B03D6E7A4FD0300BE
:100DB80090F4030090B58BB000AF0C4628F009FB07
:100DC8001E2207F10801FFF79FFD00233B71022354
:100DD8007B718AB0EC461CF110021AD0122022B1A5
:100DE800042802DD274BCCF8143000233B70022383
:100DF8007B70DAB10346082803DD07F10801CCF857
:100E080018100C2B01DDCCF81C400CF1200300213C
:100E18000AE06FF00040E2E701F128043C4414F8CE
:100E2800284C03F8014B01310129F5D9112826DD99
:100E380012234AB10421397100217971B971012154
:100E4800F9717868CCF8100000216FF300016FF396
:100E580041016FF382016FF3C501032060F388112C
:100E6800C3F3090363F352216FF3DE416FF3DF71BC
:100E78000023054805F066FD2C37BD4690BD6FF090
:100E88001B03D6E7BCFD030090F40300B0B58AB09D
:100E980000AF0D4628F09DFA1E2207F10801FFF762
:100EA80033FD6C4600233B7102237B718AB0EC460C
:100EB8001CF110021AD0122022B1042802DD324B94
:100EC800CCF8143000233B7002237B70DAB1034660
:100ED800082803DD07F10801CCF818100C2B01DDF8
:100EE800CCF81C500CF1200300210AE06FF0004000
:100EF800E2E701F128053D4415F8285C03F8015B99
:100F080001310129F5D911283ADD12234AB104210A
:100F1800397100217971B9710121F9717868CCF8BA
:100F2800100000216FF300016FF341016FF382019C
:100F38006FF3C501032060F38811C3F3090363F35A
:100F480052216FF3DE416FF3DF7100230F4805F084
:100F5800F9FCA5460E4B186820B10FF0A9F90C4B07
:100F680000221A600B4B186838B10FF0A1F9094B31
:100F780000221A6001202CF0E9F92837BD46B0BDDF
:100F88006FF01B03C2E700BFD4FD030090F4030019
:100F9800E0BD0020E4BD0020F0B591B000AF0446EC
:100FA8000D460FF05BF9454B1860204628F011FA02
:100FB8001E2207F10801FFF7A7FC6C4600233B71CE
:100FC80002237B718AB0EC461CF110021AD0122061
:100FD80022B1042802DD3A4BCCF8143000233B70D0
:100FE80002237B70DAB10346082803DD07F1080104
:100FF800CCF818100C2B01DDCCF81C500CF1200398
:1010080000210AE06FF00040E2E701F140053D44AD
:1010180015F8405C03F8015B01310129F5D9112865
:1010280049DD12234AB10421397100217971B9715E
:101038000121F9717868CCF8100000216FF30001E4
:101048006FF341016FF382016FF3C501032565F367
:101058008811C3F3090363F352216FF3DE416FF381
:10106800DF71184E0023304605F06CFCA546164B80
:10107800FB6302233B7100237B71BB71FB717A68B0
:10108800BA63194663F3000163F3410163F3820114
:1010980063F3C50165F38811082262F3522163F3F3
:1010A800DE4163F3DF7107F13802304605F04AFC90
:1010B8004437BD46F0BD6FF01B03B3E7E0BD002029
:1010C800BCFD030090F40300F4FD0300F0B593B0F9
:1010D80000AF002941D008466D4688B06B4613F131
:1010E80010020DD00C213AB10C46042901DD854EC1
:1010F8005E61082C07DD98610B292BDD0C2404E0C8
:101108006FF00041EFE76FF01B043AB10321397229
:1011180000217972B972F972B868186100216FF309
:1011280000016FF341016FF382016FF3C5010123E1
:1011380063F3881104F47B7363F352216FF3DE4188
:101148006FF3DF710023704805F0FCFBAD464C37A8
:10115800BD46F0BD6FF01B04D7E7044628F039F907
:101168001E2207F11001FFF7CFFB6D4600233B72EB
:1011780002237B7288B0EC461CF1100215D00E20B9
:1011880022B1042802DD614BCCF8143000233B71F6
:1011980002237B71BAB1082803DD07F11003CCF8EC
:1011A80018300CF11C0300210BE06FF00040E7E75A
:1011B80001F1480606EB070E1EF844EC03F801EBB4
:1011C80001310129F4D90D284BDD0E234AB1032141
:1011D800397200217972B9720121F972B868CCF8B4
:1011E800100000216FF300016FF341016FF38201DA
:1011F8006FF3C501032060F38811C3F3090363F398
:1012080052216FF3DE416FF3DF7100233E4805F092
:1012180099FBAD4620460FF021F83D4B18600120A0
:101228002CF08FF83B4B1B68FB6007F10C01204644
:1012380028F0D1F80446002841D06D4688B06B46A6
:1012480013F1100210D00C213AB10846042901DD2F
:10125800314E5E6108280ADD9C610B292CDD0C24C7
:1012680007E06FF01B03B1E76FF00041ECE76FF0A8
:101278001B043AB10321397200217972B972F972EB
:10128800B868186100216FF300016FF341016FF333
:1012980082016FF3C501012363F3881104F47B73A2
:1012A80063F352216FF3DE416FF3DF7100231648B9
:1012B80005F048FBAD464AE76FF01B04D9E7174B2A
:1012C8007B6402233B7200237B72BB72FB72BA6899
:1012D8003A64194663F3000163F3410163F3820141
:1012E80063F3C501032262F38811082262F35221D5
:1012F80063F3DE4163F3DF7107F14002024805F052
:1013080021FB24E724FE030090F4030040FE0300C1
:10131800E4BD0020B0F5030050FE030070FE03009A
:10132800F0B59BB000AF754BFB6102233B70002307
:101338007B70BB70FB703A68BA61194663F30001B1
:1013480063F3410163F3820163F3C501032262F38E
:101358008811082262F3522163F3DE4163F3DF71DF
:1013680007F11802664805F0EDFA664B1B68002B7A
:1013780048D0654B1B78002B67D00123BB71FB71EC
:10138800624BFB6402233B7000237B70BB70FB70D5
:101398003A68BA64194663F3000163F3410163F3E1
:1013A800820163F3C501032262F38811082262F304
:1013B800522163F3DE4163F3DF7107F148025048BD
:1013C80005F0C0FA0023BB80391D4E4B186828F081
:1013D80002F80546002800F08A806C4688B06B4603
:1013E80013F1100256D00C213AB10846042901DD48
:1013F800474E5E61082850DD9D610B2974DD4FF072
:101408000C0C4CE0434B7B6602233B7000237B7043
:10141800BB70FB703A683A66194663F3000163F3E0
:10142800410163F3820163F3C501032262F388116A
:10143800082262F3522163F3DE4163F3DF7107F19F
:1014480060022F4805F07EFA4BE00223BB71FB7166
:10145800314A7A633B7000237B70BB70FB703A683B
:101468003A63194663F3000163F3410163F38201B0
:1014780063F3C501032262F38811082262F3522143
:1014880063F3DE4163F3DF7107F130021C4805F0B6
:1014980059FA97E76FF00041A6E76FF01B0C3AB1D5
:1014A8000321397000217970B970F97038681861B2
:1014B80000216FF300016FF341016FF382016FF3B5
:1014C800C501012363F388110CF47B7363F3522184
:1014D8006FF3DE416FF3DF710023094805F032FA3C
:1014E800A5466C37BD46F0BD6FF01B0CD7E7064A22
:1014F800137883F001031370F3E700BF90FE030035
:1015080090F40300E4BD002034880020C8FE0300E6
:10151800F8FE0300ACFE0300E0FE03002DE9F047EF
:1015280090B000AF894616460024BC60FC603C6160
:101538007C61BC61FC613C62BC8427F04AFF1E22CE
:1015480007F10801FFF7E0F96D463C7102237B7152
:1015580088B06C4614F1100213D00E201AB104287A
:1015680001DD574B636100233B7002237B70AAB1F6
:10157800082802DD07F10803A36104F11C03002118
:101588000AE06FF00040E9E701F1400CBC441CF8A8
:1015980040CC03F801CB01310129F5D90D2825DD0F
:1015A8000E2342B10321397100217971B9710121EA
:1015B800F9717868206100216FF300016FF3410130
:1015C8006FF382016FF3C501032060F38811C3F341
:1015D800090363F352216FF3DE416FF3DF710023D8
:1015E800384805F0AFF9AD46002444E06FF01B031E
:1015F800D7E7354BFB6302223A7100237B71BB713D
:10160800FB717968B963194663F3000163F341011B
:1016180063F3820163F3C50162F38811082262F360
:10162800522163F3DE4163F3DF7107F13802254885
:1016380005F088F94037BD46BDE8F087331BA0F8B0
:10164800043205F10408B5F8042209EB0401404608
:1016580026F0CFFEB5F804321C44A4B2A6421CD032
:10166800B5F8042219488368D3F804A04FF0FF3373
:101678004146D047F0B9B442DCD04FF402702DF0A7
:10168800E9FB05460028B4D0331BB3F5007FD5D35A
:1016980040F2FF13A0F80432D3E709EB060212F870
:1016A800012C0D2ADCD1EA180A2111710133A5F8A1
:1016B8000432D5E7294606482DF08CF9DBE700BF50
:1016C80018FF030090F4030030FF0300CCEF030081
:1016D800E08900202DE9F04188B000AFAB482DF03B
:1016E8009AF8002800F04C814FF402702DF0B2FBFC
:1016F8000546002800F047810023A0F80432A449D9
:10170800A44821F04BF8A14B9B681B687BB30022CF
:10171800A1499E489847044660B328462DF091FB9E
:101728009E4BFB6102233B7100237B71BB71FB71F4
:101738007A68BA61194663F3000163F3410163F300
:10174800820163F3C501012262F38811082262F362
:10175800522163F3DE4163F3DF7107F11802904809
:1017680005F0F0F820462037BD46BDE8F0816FF05F
:101778005704D2E74FF402702DF06CFB06460028A0
:1017880000F0858000F10408864A4FF40071404655
:1017980009F00EFA0446B0F5007F31D2A6F804022B
:1017A80082B27A4883685C684FF0FF334146A047AD
:1017B8000446002871D1291D74488368DC686423B5
:1017C8004FF40072A04704460028CBD06E4688B07C
:1017D8006B4613F1100200F0A5800C2152B10846A7
:1017E800042903DDDFF8C0C1C3F814C0082840F39A
:1017F8009C809C610B2940F3C0804FF00C0C96E054
:1018080028462DF01EFB30462DF01BFB6D4688B098
:10181800694611F110020DD00C233AB11846042B79
:1018280001DD624E4E61082807DD8C610B2B2BDD34
:101838000C2304E06FF00043EFE76FF01B033AB1AD
:101848000320387100207871B871F87178680861E0
:1018580000216FF300016FF341016FF382016FF311
:10186800C501012060F3881103F47B7363F35221EF
:101878006FF3DE416FF3DF710023494805F062F82A
:10188800AD466FF00B046DE76FF01B03D7E72846F2
:101898002DF0D7FA6FF00B0464E728462DF0D1FA43
:1018A80030462DF0CEFA6E4688B06B4613F1100222
:1018B8000DD00C213AB10846042901DD3C4D5D618B
:1018C800082807DD9C610B2929DD0C2504E06FF051
:1018D8000041EFE76FF01B053AB103213971002190
:1018E8007971B971F9717868186100216FF3000195
:1018F8006FF341016FF382016FF3C501012363F3B5
:10190800881105F47B7363F352216FF3DE416FF3A3
:10191800DF710023224805F015F8B54622E76FF07D
:101928001B05D9E76FF0004158E76FF01B0C3AB17F
:101938000321397100217971B971F97178681861D9
:1019480000216FF300016FF341016FF382016FF320
:10195800C501012363F388110CF47B7363F35221EF
:101968006FF3DE416FF3DF7100230D4804F0EAFFE7
:10197800B54628462DF065FAF4E66FF01B0CD6E75D
:101988006FF01204EEE66FF00B04EBE6CCEF030009
:10199800BD190100108D00204D1A01005CFF0300E5
:1019A80090F403007CFF0300E8FF0300A4FF03009A
:1019B800BCFF030010B588B04FF402702DF04AFA4E
:1019C80068B101460023A0F804320431194883683D
:1019D800DC6864234FF40072A04708B010BD164BB2
:1019E800079302228DF8042000238DF805308DF826
:1019F80006308DF8073001990691194663F3000106
:101A080063F3410163F3820163F3C50162F3881153
:101A1800082262F3522163F3DE4163F3DF7106AA01
:101A2800064804F08FFF40F267620023044821F063
:101A380011F8D2E7CCEF03001000040090F4030083
:101A4800108D002010B594B00B78052B00F20D8195
:101A5800DFE813F00600F5005400B200E800720059
:101A68008B68002B00F001814B68002B00F0FD8093
:101A7800814A106800283FD00438002313607F4A49
:101A880013602DF0DEF9002200237D4820F016F9BE
:101A9800002800F0EA80011DB0F804227948836824
:101AA8005C684FF0FF33A047002800F0DE80764BDB
:101AB800139302228DF8042000238DF805308DF849
:101AC80006308DF8073001991291194663F3000129
:101AD80063F3410163F3820163F3C50162F3881183
:101AE800082262F3522163F3DE4163F3DF7112AA25
:101AF800664804F027FFB8E0181FC2E74A68B2F842
:101B08000032C86803449BB2A2F80032604A1278D7
:101B1800002A40F0AA804A68134413F8013C0A2BB3
:101B280002D00D2B40F0A180594B01221A70554864
:101B380083685B69984798E0554B00221A704FF408
:101B480002702DF087F9014658B10023A0F804323D
:101B580004314C488368DC6864234FF40072A04762
:101B680083E04C4B079302228DF8042000238DF864
:101B780005308DF806308DF8073001990691194621
:101B880063F3000163F3410163F3820163F3C50169
:101B980062F38811082262F3522163F3DE4163F392
:101BA800DF7106AA394804F0CDFE40F267620023CF
:101BB800394820F04FFF58E04FF402702DF04AF9F1
:101BC800014650B10023A0F804322E4883681B69EF
:101BD8004FF400720431984747E02E4B0D930222D0
:101BE8008DF8042000238DF805308DF806308DF827
:101BF800073001990C91194663F3000163F3410121
:101C080063F3820163F3C50162F38811082262F36A
:101C1800522163F3DE4163F3DF710CAA1B4804F021
:101C280091FE22E04B68191FB3F800321BB11B4824
:101C38002CF0D0FE19E008462DF003F915E00E4B04
:101C48001B68A3B18B680D4A11680B4413600A4ADC
:101C58001268111F19440431B2F80022D21A094837
:101C680083685C684FF0FF33A04714B010BD4A6822
:101C7800014B1A60E6E700BFD8BB0020D4BB0020A8
:101C8800E0890020CCEF03003C00040090F403003E
:101C9800A6CA002010000400108D0020C48900206E
:101CA8002DE9F04782B000AF4FF00009CA4627E09F
:101CB8006FF0004152E00F2962DD10213AB1042093
:101CC800387100207871B871F871786818616FF30D
:101CD80000046FF341046FF382046FF3C504022319
:101CE80063F3881401F47D7161F352246FF3DE44C9
:101CF8006FF3DF7400232146454804F023FEB54600
:101D08004FF0FF324FF0FF33424820F0ADF8424B1E
:101D18001B68002BF4D0DFF804814FF0FF324FF03E
:101D2800FF3340461FF096FD3D4EF4223D493046B4
:101D380026F05FFB40461FF0A3FEF4223146364BE7
:101D4800186806F0CFFF8446E8B109F101096E462C
:101D580088B06B4613F11002AAD01021002AAAD02D
:101D68000846042903DDDFF8C0E0C3F814E00828BA
:101D780001DDC3F818C00C289DDDC3F81C909AE754
:101D88006FF01B019AE70AF1010A6E4688B06B46AC
:101D980013F1100236D0102172B10846042903DD70
:101DA800DFF888C0C3F814C0082801DDC3F818A0FC
:101DB8000C2801DDC3F81C900F2926DD10213AB14B
:101DC8000420387100207871B871F871786818614A
:101DD8006FF300056FF341056FF382056FF3C505D7
:101DE800032363F3881501F47D7161F352256FF3C2
:101DF800DE456FF3DF7500232946054804F0A2FD90
:101E0800B5467DE76FF00041C6E76FF01B01D6E7E6
:101E180090F40300C8BD0020E4BD00201489002010
:101E2800E0BB0020D4BC00205C0004008400040057
:101E380000B587B0002300930193029303930493A2
:101E4800059308228DF8002009228DF80120182218
:101E58008DF80220FF228DF8032007218DF8051048
:101E68008DF806204FF0804102918DF80F20022254
:101E78008DF810208DF812204FF0004202920122B6
:101E88008DF80C200A4A69460A481DF043FD0A4BA2
:101E9800984203D0002007B05DF804FB07481EF005
:101EA80055FD074B186008B10120F4E70020F2E760
:101EB80089040100840604000000AD0BA40004009E
:101EC8001CBE002008B50146002202481DF050FE45
:101ED80008BD00BF840604000C4B1B780BB1002022
:101EE800704710B584B08446EE46094B0FCB8EE898
:101EF8000F00084B83F800C00124044B1C70704687
:101F0800FFF7E0FF204604B010BD00BFA9CA0020BB
:101F1800B4F5030020BE00200F4B1B7803B17047B7
:101F280000B585B00C4B03221A700C4B00221A70B6
:101F3800EC460B4B0FCB8CE80F006046FFF7C2FF57
:101F480000E020BF044B1B78002BFAD1054B187812
:101F5800C0B205B05DF804FBA9CA0020A8CA0020D9
:101F6800C4F5030028BE00200C4B1B780BB10020E1
:101F7800704700B585B0094B02221A70084B002241
:101F88001A70EC46074B0FCB8CE80F006046FFF742
:101F980099FF012005B05DF804FB00BFA9CA002025
:101FA800A8CA0020D4F5030000B589B018482CF061
:101FB80032FC38B14FF4B011164823F057FB09B082
:101FC8005DF804FB144B079302238DF804300023BB
:101FD8008DF805308DF806308DF80730019A069295
:101FE800194663F3000163F3410163F3820163F36C
:101FF800C501012262F38811082262F3522163F3BA
:10200800DE4163F3DF7106AA044804F09BFCD6E7BF
:102018006CEF03007C060400AC00040090F403009D
:1020280090B583B000AF044602460B212E48FEF758
:102038002FFBECB12D4900233B7102237B7188B043
:10204800EC461CF1100215D00E2022B1042802DD46
:10205800274BCCF8143000233B7002237B70B2B1BD
:10206800082801DDCCF818100CF11C0300210CE045
:102078002049E0E76FF00040E7E701F108043C443D
:1020880014F8084C03F8014B01310129F5D90D2842
:1020980026DD0E234AB10321397100217971B97106
:1020A8000121F9717868CCF8100000216FF3000164
:1020B8006FF341016FF382016FF3C501032060F3F1
:1020C8008811C3F3090363F352216FF3DE416FF301
:1020D800DF710023084804F035FC0C37BD4690BD7D
:1020E8006FF01B03D6E700BF6CEF0300C4000400C9
:1020F800D8000400D000040090F40300F0B58DB0BF
:1021080000AF00F003003875797507F11403FB6020
:1021180002233B6107F10C037B600123BB600020B5
:10212800FFF77EFF384B186883681C6800233A1D48
:102138003649A0470446002842D06D4688B06B4611
:1021480013F110020ED00C213AB10846042901DD22
:102158002F4E5E61082808DD9C610B292DDD4FF0AC
:102168000C0C04E06FF00041EEE76FF01B0C3AB185
:102178000321397000217970B970F97038681861D5
:1021880000216FF300016FF341016FF382016FF3D8
:10219800C501012363F388110CF47B7363F35221A7
:1021A8006FF3DE416FF3DF7100231A4804F0CAFBB6
:1021B800AD4620463437BD46F0BD6FF01B0CD6E760
:1021C800154BFB6202233B7000237B70BB70FB70D6
:1021D8003A68BA62194663F3000163F3410163F395
:1021E800820163F3C501032262F38811082262F3B6
:1021F800522163F3DE4163F3DF7107F128020548DA
:1022080004F0A0FBD5E700BF00BE002080820020BC
:10221800E400040090F4030000010400414B1B7823
:10222800002B7ED0F0B583B000AF3F4B1B78002B5E
:102238005FD03E4B1C683E4850F8242001323D498F
:1022480081FB0231D317C3EB610303EB8303D31A7A
:1022580040F82430354B1868354B53F8202000EBF4
:1022680080031344344A52F823402146FFF746FFBF
:1022780000283BD12D4B1E686D4688B06B4613F184
:10228800100248D0102162B10846042903DDDFF8A6
:10229800ACC0C3F814C0082800DD9E610C2800DD1E
:1022A800DC610F293ADD10243AB10421397100218B
:1022B8007971B971F9717868186100216FF30001BB
:1022C8006FF341016FF382016FF3C501032363F3D9
:1022D800881104F47D7464F352216FF3DE416FF3C7
:1022E800DF710023164804F02DFBAD460C37BD46C0
:1022F800F0BD0E4B1C680E4850F8242004320D49DE
:1023080081FB0231D317C3EB610303EB8303D31AB9
:1023180040F824309EE76FF00041B4E76FF01B04EB
:10232800C2E7704736880020358800201C830020CB
:10233800F0BD0020676666662C06040018010400DC
:1023480090F4030038B5054600240BE0074B03EB77
:10235800C401621B18BF0122097953F83400FEF743
:1023680097F90134032CF1DD38BD00BF98820020B5
:10237800F0B589B000AF144623F083F9A34B1B686E
:10238800C31AC72B30D9A14B1860A14B1B7924FA6B
:1023980003F313F0010F36D09E4B1B78002B00F08F
:1023A8008E809D490B6801335A4203F0030302F003
:1023B800030258BF53420B60032B06D8DFE803F033
:1023C80002171B1F954B964A1A6096482CF091FCF1
:1023D800924B1B68012219791868FEF759F90024F5
:1023E8008C4B1B78002B6CD12437BD46F0BD8B4B32
:1023F8008D4A1A60E9E7894B8C4A1A60E5E7874BF2
:102408008B4A1A60E1E7824B1B7E24FA03F313F030
:10241800010F16D17E4B93F82C3024FA03F313F0F6
:10242800010F15D17A4B93F8403024FA03F313F0D7
:10243800010F15D0774A137883F001031370032432
:10244800CEE701247B4B1C707B4820F075F8C7E76A
:10245800784B00221A70784820F06EF80224BFE703
:102468006B4B93F85430DC4014F0010F01D1002479
:10247800B6E7724BFB6102233B7100237B71BB7192
:10248800FB717A68BA61194663F3000163F341018D
:1024980063F3820163F3C501032262F38811082202
:1024A80062F3522163F3DE4163F3DF7107F118022F
:1024B800634804F047FAFEF733FF042490E700244A
:1024C8008EE7554B1868FFF73DFF6D4688B06B46A1
:1024D80013F110020DD00C213AB10846042901DD90
:1024E800584E5E61082807DD9C610B293EDD0C24EF
:1024F80004E06FF00041EFE76FF01B043AB10321ED
:10250800397100217971B971F97178681861002100
:102518006FF300016FF341016FF382016FF3C5019F
:10252800032363F3881104F47B7363F352216FF37D
:10253800DE416FF3DF710023414804F003FAAD4632
:10254800354B1C686D4688B06B4613F1100210D0ED
:102558000C213AB10846042901DD3B4E5E6108288A
:102568000ADD9C610B294ADD0C2407E06FF01B048F
:10257800C4E76FF00041ECE76FF01B043AB10321A8
:10258800397100217971B971F97178681861002180
:102598006FF300016FF341016FF382016FF3C5011F
:1025A800032363F3881104F47B7363F352216FF3FD
:1025B800DE416FF3DF710023214804F0C3F9AD4613
:1025C800154B1B68214A52F8232003EB830313445D
:1025D8001F4A52F823406D4688B06B4613F110022B
:1025E80010D00C213AB10846042901DD194E5E616C
:1025F800082831DD9C610B2953DD0C242EE06FF097
:102608001B04BBE76FF00041ECE700BFECBD002006
:10261800B8820020368800201C830020E8BD0020F6
:1026280098820020408D0020A0820020A8820020EF
:10263800B0820020358800200CBE00204001040034
:1026480090F403006001040074010400F0BD002050
:102658002C060400880104006FF01B043AB1032122
:10266800397100217971B971F9717868186100219F
:102678006FF300016FF341016FF382016FF3C5013E
:10268800032363F3881104F47B7363F352216FF31C
:10269800DE416FF3DF710023034804F053F9AD46C0
:1026A800A2E66FF01B04D9E790F40300B0B582B03E
:1026B80000AF032839D96C4688B06B4613F1100275
:1026C8003DD00C2142B18C46042901DD1F4D5D61CE
:1026D800BCF1080F00DD98610B2933DD4FF00C0CBD
:1026E8003AB10321397100217971B971F9717868AA
:1026F800186100216FF300016FF341016FF382014C
:102708006FF3C501012363F388110CF47B7C6CF330
:1027180052216FF3DE416FF3DF7100230C4804F0A0
:1027280011F9A5460837BD46B0BD0A4B03EBC001F9
:102738000022097953F83000FDF7AAFFF2E76FF09D
:102748000041BFE76FF01B0CCAE700BFA8010400F7
:1027580090F4030098820020B0B582B000AF03283F
:1027680039D96C4688B06B4613F110023DD00C2164
:1027780042B18C46042901DD1F4D5D61BCF1080F93
:1027880000DD98610B2933DD4FF00C0C3AB10321C1
:10279800397100217971B971F9717868186100216E
:1027A8006FF300016FF341016FF382016FF3C5010D
:1027B800012363F388110CF47B7C6CF352216FF3D3
:1027C800DE416FF3DF7100230C4804F0BBF8A54627
:1027D8000837BD46B0BD0A4B03EBC0010122097999
:1027E80053F83000FDF754FFF2E76FF00041BFE700
:1027F8006FF01B0CCAE700BFD001040090F403007F
:10280800988200202DE9F84322F03BFF06464F4C02
:102818004FF0FF324FF0FF3320461FF01BF8320E07
:102828004B4B1A70320C5A70320A9A70DE7020467E
:102838001FF026F963E022F024FFC4B2F3B2E41AD1
:10284800E4B2DFF808914FF0FF324FF0FF3348460B
:102858001FF000F83F4B1F683F010437DFF8F08096
:1028680007EB080548461FF00BF908F80740002455
:102878000AE0394B1A7EAA725A7EEA729B7E2B7343
:102888002046FFF769FF0134032C1FDC2046FFF7C1
:102898000DFF22F064FF022021F0DCFB22F064FF30
:1028A800022021F0D7FBFFF75FFB022CE1DC04EBF1
:1028B8004403591C284A507D68540233917DE954D9
:1028C800631C03EB4303D27DEA54D9E722F047FFA8
:1028D800022021F0BFFB22F047FF022021F0BAFBC3
:1028E800FFF742FB1C4B5A7D6A739A7DAA73DB7D06
:1028F800EB73184A1368013313600E2B08DC174B6F
:102908001B78002B97D04FF47A7022F0D4FEF6E7AC
:10291800134600221A600D4C4FF0FF324FF0FF3380
:1029280020461EF097FF22F0ACFE0646020E084B2A
:102938001A70020C5A70020A9A70D87020461FF05A
:102948009FF807481FF048FAD9E700BF148900200C
:10295800D4BC0020D0BB002028BE00203688002030
:10296800C8BD002010B58EB03B481DF0EFFF3B4BB3
:10297800186028B34FF4D0121B21FDF795FD384B92
:102988001860002842DB354C01221B212068FDF726
:102998007FFE0A2021F05EFB00221B212068FDF744
:1029A80077FE4FF4FA7022F086FE01221B21206880
:1029B800FDF76EFE4FF4FA7022F07DFE0EB010BDEA
:1029C800284B0D9302238DF8043000238DF8053031
:1029D8008DF806308DF80730019A0C92194663F38A
:1029E800000163F3410163F3820163F3C50103222C
:1029F80062F38811082262F3522163F3DE4163F324
:102A0800DF710CAA184803F09DFFD7E7174B07930F
:102A180002238DF8043000238DF805308DF8063038
:102A28008DF80730019A0692194663F3000163F3A3
:102A3800410163F3820163F3C501032262F3881144
:102A4800082262F3522163F3DE4163F3DF7106AAC1
:102A5800054803F077FFB1E7A400040008BE002092
:102A6800DCBB0020F801040090F4030020020400FD
:102A78002DE9F04FF9B002AF1BF050F9BC49BD4841
:102A88001FF0CEFCFDF706FFFFF78EFA0120FFF7D7
:102A9800C7FAB9481FF0A0F90022B849B8482CF085
:102AA8001CF9B84B18682BF0B6FE98B3B64BFB630D
:102AB80002233B7400247C74BC74FC743B69BB63C4
:102AC800214664F3000164F3410164F3820164F375
:102AD800C501032363F38811082363F3522164F3C8
:102AE800DE4164F3DF71234607F13802A74803F09B
:102AF80029FF032C76DCA64B53F834002BF08BFE11
:102B080088B34FF4B011A24800EBC40022F0AEFD28
:102B18000134EEE79F4BC7F8D43102233B740023FE
:102B28007B74BB74FB743A69C7F8D021194663F308
:102B3800000163F3410163F3820163F3C5010122DC
:102B480062F38811082262F3522163F3DE4163F3D2
:102B5800DF7107F5E8728D4803F0F4FE07F5EE77AC
:102B6800BD46BDE8F08F6D4688B002AB13F1100288
:102B78000DD00C213AB10846042901DD864E5E616C
:102B8800082807DD9C610B2929DD0C2404E06FF07F
:102B98000041EFE76FF01B043AB1032139740021BB
:102BA8007974B974F9743869186100216FF30001F8
:102BB8006FF341016FF382016FF3C501012363F3E2
:102BC800881104F47B7363F352216FF3DE416FF3D2
:102BD800DF7100236D4803F0B5FEAD46BEE76FF028
:102BE8001B04D9E7FEF776FD6C480EF00BFA0028B7
:102BF80049D16B480EF02EFA002869D100200BF05D
:102C080073F9684B7B6502233B7400237B74BB74A8
:102C1800FB743A693A65194663F3000163F34101AD
:102C280063F3820163F3C501032262F3881108226A
:102C380062F3522163F3DE4163F3DF7107F150025F
:102C4800524803F07FFE4C481FF0C6F824F05DFCA4
:102C5800554806F03BF80446002800F0AD806D4664
:102C680088B002AB13F1100257D00C213AB10846D4
:102C7800042901DD4D4E5E61082851DD9C610B2958
:102C880073DD0C244EE04A4BC7F8BC3102233B7479
:102C980000237B74BB74FB743A69C7F8B8211946E2
:102CA80063F3000163F3410163F3820163F3C50138
:102CB800012262F38811082262F3522163F3DE4194
:102CC80063F3DF7107F5DC72304803F03BFE45E73C
:102CD800384BC7F8A43102233B7400237B74BB74C0
:102CE800FB743A69C7F8A021194663F3000163F33E
:102CF800410163F3820163F3C501012262F3881184
:102D0800082262F3522163F3DE4163F3DF7107F5B2
:102D1800D0721E4803F016FE20E76FF00041A5E7C9
:102D28006FF01B043AB10321397400217974B97426
:102D3800F9743869186100216FF300016FF34101DC
:102D48006FF382016FF3C501012363F3881104F463
:102D58007B7363F352216FF3DE416FF3DF7100235E
:102D68000A4803F0EFFDAD46F8E66FF01B04D9E71B
:102D7800252201000CBE002064890020ED06010018
:102D8800408D002000BE00207002040090F4030073
:102D98009882002058020400840204005482002013
:102DA8004482002004030400388200201C0304002D
:102DB800A0020400D002040007F11404794D0FCDDD
:102DC8000FC42B68236001230093774B02227749B5
:102DD80007F114000CF04CFA044600283ED06D466A
:102DE80088B002AB13F110020DD00C213AB108469D
:102DF800042901DD6E4E5E61082807DD9C610B2900
:102E080029DD0C2404E06FF00041EFE76FF01B04AC
:102E18003AB10321397400217974B974F9743869A5
:102E2800186100216FF300016FF341016FF3820114
:102E38006FF3C501012363F3881104F47B7464F311
:102E480052216FF3DE416FF3DF710023594803F01D
:102E580079FDAD4682E66FF01B04D9E7564BFB6659
:102E680002233B7400237B74BB74FB743A69BA6613
:102E7800194663F3000163F3410163F3820163F3CD
:102E8800C501032262F38811082262F3522163F319
:102E9800DE4163F3DF7107F16802464803F052FD33
:102EA80046481DF053FD464B186058B34FF4D012F6
:102EB8001A21FDF7F9FA002849DBFEF7B9FF0028C7
:102EC8006AD040496D4600233B7402237B7488B066
:102ED8000DF1080C1CF1100260D00E2022B104285C
:102EE80002DD394BCCF8143000233B7302237B738B
:102EF800002A7AD0082801DDCCF818100CF11C0340
:102F0800002170E0314BC7F88C3102233B74002359
:102F18007B74BB74FB743A69C7F88821194663F35C
:102F2800000163F3410163F3820163F3C5010122E8
:102F380062F38811082262F3522163F3DE4163F3DE
:102F4800DF7107F5C4721B4803F0FCFC06E6204B52
:102F5800C7F8743102233B7400237B74BB74FB7481
:102F68003A69C7F87021194663F3000163F3410118
:102F780063F3820163F3C501012262F38811082219
:102F880062F3522163F3DE4163F3DF7107F5B87230
:102F9800084803F0D7FCE1E50E4993E76FF00040DD
:102FA8009CE700BFE4F50300F40504001C060400D8
:102FB8004803040090F4030070030400A400040014
:102FC80004BE00204C020400E8030400940304003B
:102FD800BC0304005002040007F10C0E1EF801E0C7
:102FE80003F801EB01310129F6D90D2840F342819C
:102FF8000E234AB10321397400217974B97401216F
:10300800F9743869CCF8100000216FF300016FF3F0
:1030180041016FF382016FF3C5014FF0030969F3B2
:103028008811C3F3090363F352216FF3DE416FF391
:10303800DF71DFF888830023404603F083FCAD4648
:103048000A2022F038FBDE4BC7F884304FF0020A22
:1030580087F810A000257D74BD74FD743B69C7F81E
:103068008030294665F3000165F3410165F382016B
:1030780065F3C50169F388114FF0080B6BF3522112
:1030880065F3DE4165F3DF712B4607F180024046A8
:1030980003F058FC01221A21CA4B1868FDF7F8FA08
:1030A8004FF47A7022F007FB2A461A21C54B18689C
:1030B800FDF7EEFAC44BC7F89C3087F810A07D7472
:1030C800BD74FD743B69C7F89830294665F3000163
:1030D80065F3410165F3820165F3C50169F3881160
:1030E8006BF3522165F3DE4165F3DF712B4607F17F
:1030F8009802404603F026FC4FF47A7022F0DBFA7F
:10310800FFF730FCB14BC7F8B43087F810A07D74D6
:10311800BD74FD743B69C7F8B030294665F30001FA
:1031280065F3410165F3820165F3C50169F388110F
:103138006BF3522165F3DE4165F3DF712B4607F12E
:10314800B002404603F0FEFB092020F083FF22F086
:1031580015FB78609E4BC7F8CC3087F810A07D74BB
:10316800BD74FD743B69C7F8C830294665F3000192
:1031780065F3410165F3820165F3C50169F38811BF
:103188006BF3522165F3DE4165F3DF712B4607F1DE
:10319800C802404603F0D6FB7B68002B6DD08D4BF0
:1031A800C7F8FC3087F810A02B467D74BD74FD74F9
:1031B8003A69C7F8F820294665F3000165F341012B
:1031C80065F3820165F3C50169F388116BF3522138
:1031D80065F3DE4165F3DF7107F1F802404603F05D
:1031E800B1FB4FF47A7022F066FA22F0C2FA002896
:1031F80068D0794BC7F82C3102233B7400237B74C9
:10320800BB74FB743A69C7F82821194663F30001B7
:1032180063F3410163F3820163F3C501032262F39F
:103228008811082262F3522163F3DE4163F3DF71F0
:1032380007F59472614803F085FB4FF4FA7022F0A9
:103248003AFA22F04EFAE94688B002AB13F11002BE
:103258005DD00C214AB10D46042903DDDFF87CC19D
:10326800C3F814C0082D55DD98610B2940F3A280DE
:103278000C2551E06FF01B03BBE6594BC7F8E4304F
:1032880002233B7400237B74BB74FB743A69C7F850
:10329800E020194663F3000163F3410163F38201FF
:1032A80063F3C501032262F38811082262F35221F5
:1032B80063F3DE4163F3DF7107F1E0023F4803F097
:1032C80041FB8EE7474BC7F8143102233B740023B8
:1032D8007B74BB74FB743A69C7F81021194663F311
:1032E800000163F3410163F3820163F3C501032223
:1032F80062F38811082262F3522163F3DE4163F31B
:10330800DF7107F588722D4803F01CFB95E76FF015
:1033180000419FE76FF01B053AB103213974002182
:103328007974B974F9743869186100216FF3000170
:103338006FF341016FF382016FF3C5014FF003088A
:1033480068F3881105F47B7565F352216FF3DE414C
:103358006FF3DF71194D0023284603F0F3FACD46C9
:103368004FF47A7022F0A7F922F00DFA1E4BC7F835
:10337800443102233B7400237B74BB74FB743A69A9
:10338800C7F84021194663F3000163F3410163F371
:10339800820163F3C50168F38811082262F35221A0
:1033A80063F3DE4163F3DF7107F5A072284603F08B
:1033B800C9FA2BE16FF01B05AEE700BF90F40300DC
:1033C800F803040004BE00200C0404001C040400DC
:1033D800340404003C0404007C040400D404040005
:1033E8005C040400A8040400E404040004EB84035F
:1033F800B44A52F8233019686D4601233B740323FD
:103408007B748AB002AB13F110021FD012204AB1AC
:103418000646042803DDDFF8B0C2C3F814C0082E3E
:1034280000DD9C6101243C7303247C738AB10C2861
:1034380000DDD96103F120010024012C09D807F12E
:103448000C06365D01F8016B0134F6E76FF00040B9
:10345800DDE7112825DD122442B104213974002149
:103468007974B9740121F9743869186100216FF30E
:1034780000016FF341016FF382016FF3C50101236E
:1034880063F38811C4F3090464F352216FF3DE4136
:103498006FF3DF7100238D4803F054FAAD46FFF750
:1034A8005DBB6FF01B04D7E76D4688B002A911F128
:1034B800100212D0102062B10646042803DDDFF89E
:1034C80010C2C1F814C0082E00DD8B610C2E07DD78
:1034D800CC610F282ADD102304E06FF00040EAE7F2
:1034E8006FF01B033AB10420387400207874B87464
:1034F800F8743869086100216FF300016FF3410126
:103508006FF382016FF3C501012060F3881103F4A2
:103518007D7363F352216FF3DE416FF3DF71002394
:103528006A4803F00FFAAD46FFF718BB6FF01B03AC
:10353800D8E76D4688B002A911F1100212D0102008
:1035480062B10646042803DDDFF888C1C1F814C05B
:10355800082E00DD8B610C2E07DDCC610F282ADDDB
:10356800102304E06FF00040EAE76FF01B033AB164
:103578000420387400207874B874F87438690861C5
:1035880000216FF300016FF341016FF382016FF3C4
:10359800C501012060F3881103F47D7363F35221A0
:1035A8006FF3DE416FF3DF710023484803F0CAF977
:1035B800AD46FFF7D3BA6FF01B03D8E76FF00041B1
:1035C8006DE06FF01B013AB1032038740020787465
:1035D800B874F874386918616FF300066FF3410620
:1035E8006FF382066FF3C506032363F3881601F4AD
:1035F8007B7363F352266FF3DE466FF3DF760023A7
:103608003146324803F09EF9AD460134042C67DC9C
:1036180004EB84032B4A52F823002BF0FCF8002813
:103628003FF4E4AE04EB84004FF48031254B03EB08
:10363800800022F01BF8034600287FF435AF214BA9
:1036480004EB840203EB820153F8220009794FF05E
:10365800B862FDF75DF8034600287FF46AAF04EB13
:103668008405AD000835DFF85C80454404EB84032D
:103678004FEA830908EB83031B7901229A40164914
:103688002846FDF7D5F8294658F8090021F0E4FF47
:103698006D4688B002AB13F110028FD00C214AB1ED
:1036A8000846042903DDDFF834C0C3F814C008282D
:1036B80087DD9C610B2901DD0C2184E76FF01B017C
:1036C80081E700BFB8820020FC04040090F40300E6
:1036D8002805040054050400792301008C05040022
:1036E8005C4C4FF0FF3323605B4BC7F85C3102231F
:1036F8003B7400237B74BB74FB743A69C7F8582188
:10370800194663F3000163F3410163F3820163F334
:10371800C501032262F38811082262F3522163F380
:10372800DE4163F3DF7107F5AC724C4803F00AF928
:1037380020686D4688B002AB13F110020DD00C2141
:103748003AB10C46042901DD454E5E61082C07DDBF
:1037580098610B2947DD0C2404E06FF00041EFE786
:103768006FF01B043AB10321397400217974B974DC
:10377800F9743869186100216FF300016FF3410192
:103788006FF382016FF3C501032363F3881104F417
:103798007B7363F352216FF3DE416FF3DF71002314
:1037A8002E4803F0CFF8AD462A4B1B682D4A52F835
:1037B800232003EB830313442B4A52F823006D465E
:1037C80088B002AB13F1100210D00C213AB10C46AC
:1037D800042901DD254E5E61082C0ADD98610B295C
:1037E80034DD0C2407E06FF01B04BBE76FF00041E9
:1037F800ECE76FF01B043AB10321397400217974A6
:10380800B974F9743869186100216FF300016FF316
:1038180041016FF382016FF3C501032363F388113C
:1038280004F47B7363F352216FF3DE416FF3DF71AE
:1038380000230A4803F086F8AD46064B1868FEF7E1
:1038480081FD0B4B0122DA60FFF788B96FF01B048A
:10385800D1E700BF1C830020A005040090F40300FA
:10386800C4050400F0BD00202C060400D80504009F
:1038780000E00040F0B589B0FFF7FAF80122002116
:1038880019482BF0BEF819482BF044F800260027F9
:10389800CDE9066700240494012503950294019458
:1038A8000094134B4FF40062124913481DF0E8FED0
:1038B800CDE90667049403950294019400940F4B94
:1038C8004FF400620E490F481DF0DAFE013404F08F
:1038D800010148BF494200201AF064FA4FF4004041
:1038E800002120F073FBF1E7C8BD002014890020F7
:1038F8000D280100C0D20020588C0020A91C01000E
:10390800C0CA0020A08B0020F8B540B10646037855
:103918004578847804EB83040444002711E00B4CB9
:10392800C62322460A490B4822F0B0FCC62120468D
:1039380022F0A5FC0134204624F005FD01300444A2
:103948000137AF42F6D3A01BF8BD00BF8C060400B8
:10395800BC0604002CF703002DE9F04F91B0059246
:103968000393134602F004020092C3F3C20210F05C
:103978000303019340F0638207468A460132041D1F
:10398800002848D027B1E31B0433534500F25A827C
:10399800039B5D1E019B04930693029300264FF040
:1039A800FF3B4FF00408C1460FB1039B2360531E31
:1039B8000793002A40F35F81059B13F0020227D08A
:1039C8000120E11B8B081AB1B1F5007F80F06781F7
:1039D800029A0F2A00F27381002F00F08481DBB273
:1039E800029901F140026A4402F8103C02F820BC36
:1039F800002800F0748163F07F0301F140026A44FB
:103A080002F8103C049B01330493029B0133029398
:103A1800043400223DE001F0070A5444CAF1080AC0
:103A2800B0E7002634E0002632E0002630E04FF010
:103A38000808C1462CE025292AD10BF1010B0126E3
:103A48004FF00408C14623E04729ECD82A2912D3AD
:103A58002A39C9B2012000FA01F14FF6DA700142A1
:103A680016D111F0625F40F0C38011F0010F40F0F1
:103A78008D8000260CE0252903D10BF1FF3B0026A1
:103A880006E001D9002603E0202901D02329CCD162
:103A98001D466B1C6978002900F04D81002ECAD0A4
:103AA8007A29BED84C29CFD34C392E2960D801A009
:103AB80050F821F0993A0100793B0100793B010067
:103AC800793B0100793B0100793B0100793B01001A
:103AD800793B0100793B0100793B0100793B01000A
:103AE800793B01008D3B0100793B0100793B0100E6
:103AF800793B0100793B0100793B0100793B0100EA
:103B0800793B0100793B0100F93B0100793B010059
:103B18008D3B01008D3B0100F93B0100F93B0100A1
:103B2800F93B0100993A01008D3B0100373A010049
:103B3800793B0100993A0100793B0100573C0100AB
:103B48008D3B0100573C0100793B0100793B0100A6
:103B5800613C0100853B01008D3B0100793B010080
:103B6800793B01008D3B0100793B01007D3B010061
:103B780000268DE74FF00408C14689E74FF0040896
:103B8800C14685E729786C2924D000264444013CA5
:103B9800C8F100010C40204627B1E11B49445145BA
:103BA80000F25381002A5DD1B9F1040F00F0AA8018
:103BB800B9F1080F40F0AE801A99073121F00701DA
:103BC80001F108001A90D1E900010FB1C4E9000120
:103BD80008345DE713F8021C6C2904D000264FF066
:103BE8000408C146D2E700264FF00808C146CDE7D1
:103BF80029784C291BD01A99073121F0070101F1C6
:103C080008001A90D1E90001073424F0070447B1ED
:103C1800E61B0836564514D82D784C2D14D0C4E927
:103C28000001083400264FF00808C14630E71A9909
:103C3800073121F0070101F108001A90D1E90001CC
:103C4800E2E76FF01B00F7E0C4E90001E9E70026AE
:103C58004FF00408C14699E7324600264FF00408A1
:103C6800C14693E704461A9A111D1A9112680392E5
:103C7800079A1D4698E6794B039A9A4204D3784BE3
:103C88009A420AD3002300E00023002B7FF494AE6D
:103C9800059B03F00202002093E60123F5E7714C2F
:103CA80040F27B2322467049704822F0EFFA7048B0
:103CB80022F0ECFA40F27B21204622F0E0FA694C2F
:103CC8004FF4207322466849684822F0DFFA6948B1
:103CD80022F0DCFA4FF42071204622F0D0FA069B3D
:103CE8000133069391E610B10AF1010A8DE6009BB3
:103CF80013B10AF1020A88E6039824F024FB831C16
:103D08009A4482E61A99081D1A90096807B1216039
:103D18000434BDE6534C40F2C52322465249534869
:103D280022F0B4FA4946544822F0B0FA40F2C521CC
:103D3800204622F0A4FAE31BB3F5806F13D217B321
:103D480000223A609B083B70009B03B3069BFB7004
:103D5800049BBB709BBB019DDDF80890DDF810B09B
:103D6800DDF80C804BE03F4C40F2D12322463E491F
:103D78003E4822F08BFA414822F088FA40F2D121DD
:103D8800204622F07CFA5344A3F1080054E0069B35
:103D98007B70DDE701339842DDD903F140026A44C4
:103DA80012F8101C12F9102C002AF3DA01F07F0126
:103DB800E21B013252454BD804F8011BEAE7019B8C
:103DC8000298E8E7009B3BB305F140036B4413F806
:103DD800203C04F8013B019EE31B33440133534567
:103DE80039D805F140036B4413F8103C04F8013B43
:103DF80032464146204624F0FCFA34440135A945B0
:103E080019D9BBF1000FDDD005F140036B4413F95C
:103E1800103C002BD6DAF1E705F140036B4413F8A8
:103E2800103C57F82380002247F82320404624F00E
:103E38008AFA461CD0E7E01B11B0BDE8F08F6FF09E
:103E48000D00F9E76FF01B00F6E76FF01B00F3E7D2
:103E58006FF01B00F0E76FF01B00EDE774EE030056
:103E6800FC6904008C06040064F903002CF70300C5
:103E7800D4060400F8060400140704002C07040004
:103E88002DE9F04F97B000AF39617A617862B0B12F
:103E98009B46D7F88030C3F3C003FB613B69DBB1B5
:103EA8007B6A93F80280C7F80C80B8F1000F18D02D
:103EB800D7F8803013F0010F1FD1002312E0AC4C6B
:103EC8004FF465732246AB49AB4822F0DFF94FF453
:103ED8006571204622F0D3F9786AFFF715FD38613D
:103EE800DEE700237A6AD2783A6242B1D7F88020B6
:103EF80012F0020F22D1002202E00123F2E7002291
:103F080002B9EBB1796A0D78AA00BA600A46496825
:103F1800B96102EB85057A69FAB1002B40F00E8190
:103F2800FB68002B00F01981D7F8803013F0040FDC
:103F380040F0178100208246804603E10122DFE736
:103F48007B691BB15A463969786A9847D7F8109047
:103F580048465C37BD46BDE8F08FD7F810900BBBDC
:103F6800FB68ABB3D7F8802012F0040627D01D44B5
:103F7800002624E081440135013454451DD22A78B5
:103F880000235BF822201946786921F03CFCB8F13F
:103F9800000FEFD0D7F888309E42EBD228F81600F1
:103FA8000136E7E700242646C7F810A0D7F80CA08A
:103FB800D7F824B0D7F88480DFE7D7F810A0D7F86F
:103FC800803003F00503FB604FF0000B3E61A0E07A
:103FD800FE68F4E70025FB697BB9002D7BD0D7F894
:103FE800803013F0010F7BD1FB68002B71D10223C5
:103FF800A9EB03098AE00125EDE74146B86921F0FC
:1040080049FC0028E9D06D46002387F82C300223AC
:1040180087F82D308AB0694611F1100239D012267E
:104028001AB1042E01DD554B4B61002387F8283067
:10403800022387F829307ABB112E47DD122362B19B
:10404800042087F82C00002087F82D0087F82E0020
:10405800012087F82F00F86A08616FF3000A6FF3F0
:10406800410A6FF3820A6FF3C50A022161F3881AC5
:10407800C3F3090363F3522A6FF3DE4A6FF3DF7A5F
:10408800002351463E4802F05DFCAD46A9F1020905
:104098003CE06FF00046C3E73346082E01DDB869FF
:1040A80088610C2B01DDC1F81C8001F12003002080
:1040B80009E000F1300C07F1280EF4441CF830CC6C
:1040C80003F801CB01300128F3D9B5E76FF01B03E2
:1040D800B5E701238CE7D7F8803013F0020F15D02D
:1040E800002332461946786921F08DFBD7F88430D1
:1040F80053B13B69D7F88820934205D2D7F884207A
:1041080022F8130001333B61013881440BF1010BA4
:1041180025463B6A9B45BFF41BAF2C4614F8028B1F
:104128006B787A6A52F82360164B9E42FFF452AFBE
:10413800154B9E42FFF45FAF00254CE707F14400A2
:104148004FF0000A18B1FA68294624F052F9FB68C2
:104158001D440026C7F804B033E00020824680469C
:10416800F0E7C24607F134004FF00008EAE700BF65
:104178008C060400440704002CF7030060070400C1
:1041880020F4030074EE0300FC6904000025FB69B9
:104198006BBB002D61D0D7F8803013F0010F3AD0F7
:1041A800B8F10F0F2AD808F1010308F1300207F11E
:1041B800280102EB010808F8149C5FFA83F801361D
:1041C80025463B6A9E4280F08E802C4614F802BB3E
:1041D80095F801907B6A53F82930874A9342D5D3E2
:1041E800864A934201D30025D1E70125CFE75946F6
:1041F800B86921F04FFB0028CBD0E0E7804C40F2B3
:104208003E4322467F49804822F040F840F23E4132
:10421800204622F034F8D7F8803013F0040FCED0BF
:10422800BAF10F0F0CD80AF101030AF1300207F1B5
:10423800280102EB010A0AF8249C5FFA83FABEE718
:104248006F4C40F24143224670496F4822F01EF8F5
:1042580040F24141204622F012F8D7F8803013F09E
:10426800020F1CD0B8F10F0F0CD808F1010308F1A8
:10427800300207F1280102EB010808F8149C5FFAE4
:1042880083F89CE75E4C4FF4896322465D495E489B
:1042980021F0FCFF4FF48961204621F0F0FFBAF1CC
:1042A8000F0F13D80AF101030AF1300207F12801B0
:1042B8000A4402F824BC0AF1020A5FFA8AFA07F1F2
:1042C800580252FA83F303F8249C78E74C4C40F2E6
:1042D8004B4322464D494C4821F0D8FF40F24B4110
:1042E800204621F0CCFFD7F804B07A6A137887F813
:1042F80054305378434487F85530D7F8803013F05A
:10430800020F0DD1CAF3470387F85730D7F880302A
:1043180013F0010F06D113F0040F35D1002302E08A
:104328000023F1E7002387F856307C6A2068386359
:10433800786D20605A46B96820467E69B047B0F16A
:104348000009FFF605AE386B20605A46514607F162
:104358003400B047002849DB09EB0004FA68BB6861
:104368001A443B6A02EB43015A463B69591A2846EC
:10437800B047B0F10009FFF6EBAD4C440025C7F893
:104388002080D7F8849015E05346CCE74FF0000A18
:104398005A46012107F12C00B047002828DB0444C5
:1043A800534642465946304621F02DFA002821DB73
:1043B800044401353B6A9D4211DA05F1300307F1E7
:1043C8002802134413F8143C87F82C307A6A52F800
:1043D8002380B9F1000FD9D039F815A0D8E75A468B
:1043E800002108467B699847A146B1E58146AFE5BB
:1043F8008146ADE58146ABE574EE0300FC69040037
:104408008C060400040804002CF7030024080400A8
:1044180010B586460020642310E00CF1300C0EF82D
:1044280001CB0139C9B20130C0B2B2FBF3F403FBCE
:104438001422D2B2094CA4FB0343DB0849B143B1AF
:10444800B2FBF3FC9A42E8D2012BE6D00028ECD06C
:10445800E3E711B100238EF8003010BDCDCCCCCCF1
:10446800014B1860704700BF2083002010B586B04C
:1044780004460390049100210591009103A9064880
:1044880000F05EFD059B049A934201DA0022E25493
:10449800059806B010BD00BFBB59030000293BD0EA
:1044A80038B50D460468204621F046FB0146C20097
:1044B80004EBC0035B8813F0010F0FD000EB53032C
:1044C80034F833001B1A994217D1A3185A8822F0DE
:1044D80001025A80204621F04BFB38BD0F4CAF2318
:1044E80022460F490F4821F0D1FE29460E4821F0F7
:1044F800CDFEAF21204621F0C2FE084CB72322464C
:104508000A49084821F0C2FE2946094821F0BEFEA2
:10451800B721204621F0B3FE704700BF58080400B9
:104528007C0804002CF7030090080400C808040065
:10453800F00804002DE9F843154606684B420B4085
:1045480001F1FF3919EA010904D0032B4AD84C4676
:10455800994603E00C4604293FD90423621E2242EF
:1045680044D1002D66D0B268B2EBD50F65D9611978
:10457800C91A0B31C908304621F02BFB0746002821
:104588005ED00146304621F056FA00EB0908A044F7
:1045980008F1FF38644208EA0408A8EB090808EBA8
:1045A8000504073424F007044146304621F0C4FAD4
:1045B8000546A41BE410874228D3EF0006EBC50389
:1045C8005B8805EB53039C422AD33E44738843F02F
:1045D800010373804046BDE8F883114621F034FB9F
:1045E8008046F7E74C4699460423B7E7164C4FF444
:1045F800A27322461549164821F048FE154821F0B5
:1046080045FE4FF4A271204621F039FE0246394694
:10461800304621F05AFA3946304621F09DFACCE767
:1046280022462946304621F050FA2146304621F0EC
:1046380093FACAE74FF00008CCE74FF00008C9E743
:104648004FF00008C6E700BF580804002C09040012
:104658002CF703004809040070B5B2F5802F1FD26B
:104668000346042A2CD9043AC81D20F007000A443E
:1046780022F00702121AD508172A31D91860856066
:104688000023C360B5FA85F1C1F1200EC1F1240100
:104698008900CE1DF1084B1CAB4231D8002345E000
:1046A800344C40F2EB1322463349344821F0EEFDF6
:1046B800334821F0EBFD40F2EB11204621F0DFFDFD
:1046C8002C4C4FF4F97322462E492C4821F0DEFD7C
:1046D8002D4821F0DBFD4FF4F971204621F0CFFD84
:1046E800244C40F2FB1322462849244821F0CEFDF1
:1046F800254821F0CBFD40F2FB11204621F0BFFDFB
:104708001C4C4FF40373224621491C4821F0BEFD7E
:104718001D4821F0BBFD4FF40371204621F0AFFD89
:1047280003F1040C002440F82C4001337345F7DBF7
:104738004C00A4B244804FF0000CA0F800C044F034
:10474800010444806B1A4FEA430E26F00704A51CA7
:1047580020F805E0015322F00704951C20F805C055
:1047680002440353538843F00103538021F0F4F9C2
:1047780070BD00BF58080400680904002CF7030046
:104788008009040098090400BC090400D809040041
:10479800040A040010B504468C46838B002A12DBF9
:1047A80003F007035A1F012A19D9042B50D10021FD
:1047B80021F07CFA204621F0A3FA78B1A38B43F0CC
:1047C8002003A3830AE0D0E900018CE8030000235A
:1047D800236063600121204621F068FA10BDD0E90A
:1047E80000018CE80300002222606260062B0FD0D3
:1047F800052B20D10021204621F058FA204621F02F
:104808007FFA0028EAD0A38B43F02003A383E5E7CF
:10481800DCF8003053B1E28B0132E2831A461B68A0
:10482800002BF7D0002AF5D11346F3E702212046E2
:1048380021F03CFAE2E70D4C40F2091322460C49FC
:104848000C4821F023FD40F20911204621F017FD04
:10485800064C40F21B1322460749064821F016FD74
:1048680040F21B11204621F00AFD00BF300A040067
:10487800540A04002CF7030064F903002DE9F047FB
:1048880082B0838BE1B10446154603F0070603F0B6
:104898000802084692B301291FD0022921D143F00A
:1048A8002003A383143420461CF0B4FD002800F034
:1048B8009D8185F31188BFF36F8F02B0BDE8F08743
:1048C800B94C40F233132246B849B94821F0DEFC0E
:1048D80040F23311204621F0D2FC43F01003A383A9
:1048E800E0E7B14C4FF49E732246B249B04821F03C
:1048F800CDFC4FF49E71204621F0C1FC00230093AB
:10490800019358E0204621F0FBF956E0D4F81890BE
:104918004A4669462046FFF73DFF0027A38B03F070
:104928000708B04500F00981A268002A00F0058157
:10493800012643F00803A38304F1140A50461CF02F
:1049480069FD002800F0028185F31188BFF36F8F9D
:10495800002E40F00A81009B2BB14B464246694627
:10496800204621F00EFA17B193492046B8474FF078
:104978002003EFF3118583F31288BFF36F8F50463E
:104988001CF038FD002800F0F68050461CF052FD5F
:10499800A38B23F00803A383A38B13F0100F00F05D
:1049A800F98023F01003A3830120A68B06F00706E5
:1049B80000283FF477AF0228A4D000283FF472AF54
:1049C8000138042800F2AC8001A353F820F000BF9E
:1049D80015490100294B0100ED490100554A010024
:1049E800BF4A01005EB92368B3B123691F6807B3E2
:1049F8000621204621F05AF94FF000098EE76A4C4B
:104A08004FF4AB7322466D49694821F03FFC4FF4DF
:104A1800AB71204621F033FC634C40F25713224619
:104A28006749634821F032FC40F25711204621F0D3
:104A380026FC5D4C4FF4AD73224662495C4821F078
:104A480025FC4FF4AD71204621F019FC022E0BD144
:104A5800E38BB3B923695F6807B30421204621F0CB
:104A680025F94FF0000959E74F4C40F25D132246F3
:104A780055494F4821F00AFC40F25D11204621F0CB
:104A8800FEFB494C4FF4AF7322465049484821F089
:104A9800FDFB4FF4AF71204621F0F1FB424C40F290
:104AA800611322464749424821F0F0FB40F2611168
:104AB800204621F0E4FB012E0BD12368B3B1236912
:104AC8009F6807B30521204621F0F0F84FF0000950
:104AD80024E7354C4FF4B27322463D49344821F05F
:104AE800D5FB4FF4B271204621F0C9FB2E4C40F2A1
:104AF8006513224632492E4821F0C8FB40F2651161
:104B0800204621F0BCFB284C4FF4B47322462D49B3
:104B1800274821F0BBFB4FF4B471204621F0AFFBCE
:104B2800214C40F26B1322462A49214821F0AEFB62
:104B380040F26B11204621F0A2FB009A0AB1002630
:104B4800F7E6002F3FF428AF0026F2E6224CC223F6
:104B580022462249164821F099FB5146204821F067
:104B680095FBC221204621F08AFB4A464146204651
:104B780021F0A4F8EFE6184C9423224619490C4872
:104B880021F084FB5146184821F080FB94212046EF
:104B980021F075FB13F0200F04D023F02003A3832A
:104BA800022002E7002000E7300A04007C0A040023
:104BB8002CF703008C0A0400254C0100A00A04000D
:104BC800AC0A0400D00A0400E80A0400000B040040
:104BD800100B040064F90300280B0400580B0400B0
:104BE800700B0400880B0400A00B0400074DC223BF
:104BF8002A460749074821F049FB2146064821F083
:104C080045FBC221284621F03AFB00BF280B0400CF
:104C1800580B04002CF70300700B0400F8B5044689
:104C28000D4600F114064FF02003EFF3118783F3CC
:104C38001288BFF36F8F30461CF0DCFB48B130465A
:104C48001CF0F8FBA5613A4601212046FFF716FE45
:104C5800F8BD074C942322460649074821F016FB65
:104C68003146064821F012FB9421204621F007FB2B
:104C7800280B0400880B04002CF70300A00B040089
:104C88002DE9F84F0446884621F053F8061E48DB04
:104C980004F114074FF02003EFF3118A83F312880D
:104CA800BFF36F8FD34638461CF0A4FB8146A8B1EA
:104CB80038461CF0BFFBA58B05F00705E38B4FF6C4
:104CC800FF7293424BD02E46022D16D0062D39D8AE
:104CD800DFE805F0314C3838312A31003A4C94235A
:104CE80022463A493A4821F0D1FA3946394821F062
:104CF800CDFA9421204621F0C2FA0133E383002340
:104D08001A4642B10022C8F800206268AAB3C2F865
:104D18000080C4F80480ABB3524602212046FFF756
:104D2800ADFD3046BDE8F88F6FF085064FF00009FD
:104D38004B464A46E5E7B5FA85F35B094A464FF024
:104D48000009DEE7244C4FF4E47322462349204847
:104D580021F09CFA4FF4E471204621F090FA6FF0AC
:104D68000A064FF000094B464A46CAE76FF00406A8
:104D78004FF000094B464A46C3E7C4F80480C4F81C
:104D88000080C8E738461CF045FB68B18BF31188F2
:104D9800BFF36F8FB9F1000FC3D000232A464146F5
:104DA800204620F0DBFFBCE7074CC22322460C4913
:104DB800074821F06BFA39460A4821F067FAC22100
:104DC800204621F05CFA00BF280B0400880B040081
:104DD8002CF70300A00B0400300A0400100B040099
:104DE800580B0400700B040010B50346426802F02B
:104DF80003028160022A11D0032A0CD0012A10D0A4
:104E08000C4C452322460C490C4821F03FFA452119
:104E1800204621F034FA0468002004E000680024E9
:104E280001E00024204600225A6008B120F01EFB51
:104E3800204610BDB80B040064F903002CF70300EA
:104E48004FF0000C944515D210B511F80C305840AD
:104E58000309094CE35C83EA00135FFA83FEC3F39A
:104E68000313E05C80EA0E10C0B20CF1010C94450B
:104E7800EBD310BD704700BFDC0B04008446084626
:104E8800012226E09CF8003043F004038CF800303F
:104E9800F2B101301CE09CF8003043F008038CF8B4
:104EA8000030F5E79CF8003043F010038CF8003030
:104EB800EEE79CF8003043F020038CF80030E7E779
:104EC8009CF8003043F040038CF80030E0E7002203
:104ED80042B30378203B102BF9D801A151F823F0F5
:104EE800AD4E0100D74E0100D74E0100BB4E010068
:104EF800D74E0100D74E0100D74E0100D74E010012
:104F0800D74E0100D74E0100D74E01009F4E010039
:104F1800D74E01008D4E0100D74E0100D74E01003B
:104F2800C94E01009CF8003003F04403442B00D024
:104F380070479CF800306FF386138CF80030F7E761
:104F48002DE9F04F91B006460D4691460393002493
:104F580099F80000002800F0B982252808D009F146
:104F680001092946B0470028C0F2B1820134EFE7B1
:104F780000230493059306930793089309934946DE
:104F880006A821F0BCF802909DF8193013F0010F23
:104F980000F09780039B1A1D03921F68002FC0F230
:104FA80088809DF8193013F0040F00F09C80039B53
:104FB8001A1D0392D3F800A0BAF1000FC0F28A803C
:104FC8000023079308939DF81A3003F007039DF810
:104FD8001910C1F3C301012B00F08E80022B00F0E1
:104FE800D380042B00F02481032B00F03B819DF833
:104FF800188018F0030B40F03B819DF81B30253BCF
:10500800532B00F2CA81DFE813F04001C801C80140
:10501800C801C801C801C801C801C801C801C80140
:10502800C801C801C801C801C801C801C801C80130
:10503800C801C801C801C801C801C801C801C80120
:10504800C801C801C801C801C801C801C801C80110
:10505800C801C801C801C801C801C801C801C80100
:10506800C801C801C801C801C801C801C801C801F0
:105078008101C801C801C801C801C801C801C80127
:10508800C801C801C8015E016701C801C801C8019B
:10509800C8016701C801C801C801C801BD01810173
:1050A800A101C801C8014D01C8018101C801C80199
:1050B80081019DF8183043F004038DF818307F42C1
:1050C8006FE79DF91830002B02DB4FF0FF3768E7D8
:1050D800079F66E79DF819306FF341038DF8193083
:1050E8004FF0FF3A6CE713F0020F02D0DDF820A072
:1050F80066E74FF0FF3A63E7CB1E042B04D8DFE8DE
:1051080003F00B1D29353500039B1A1D03921B68FC
:10511800DA170493059206E0039B1A1D03921B6895
:10512800DA1704930592012928D002297FF45FAF8A
:10513800BDF91030DA170493059258E7039B07333B
:1051480023F0070303F108020392D3E90023CDE912
:105158000423E8E7039B073323F0070303F108025E
:105168000392D3E90023CDE90423DCE7039B1A1D4E
:1051780003921B68DA1704930592D4E79DF910305F
:10518800DA170493059232E7CB1E042B04D8DFE824
:1051980003F00B1F35414100039B1A1D03921B6846
:1051A8000493002305931EE09DF81B30632B07D062
:1051B800039B1A1D03921B6804930023059312E0B6
:1051C800039B1A1D03921B680493002305930AE0AE
:1051D800039B073323F0070303F108020392D3E983
:1051E8000023CDE9042301291CD002297FF4FFAE56
:1051F800BDF81030049300230593F8E6039B0733AA
:1052080023F0070303F108020392D3E90023CDE951
:105218000423E8E7039B1A1D03921B6804930023E9
:105228000593E0E79DF81030049300230593DEE62C
:1052380008290BD0039B073323F0070303F1080267
:105248000392D3E90023CDE90423D0E6039B073377
:1052580023F0070303F108020392D3E90023CDE901
:105268000423C4E6039B1A1D03921B680493BEE63D
:10527800029F3B464A462946304620F0E6FF002872
:10528800C0F225810444B94662E629462520B04784
:105298000028C0F21C810134D8460DF13E0A4FF0B7
:1052A80000097FE0DDF81090BAF1000F07DB5146E6
:1052B800484623F051F809EB000AD84672E0484600
:1052C80023F041F8F7E7049B8DF82830D8460DF114
:1052D800290A0DF1280965E018F0080F05D118F022
:1052E800100804D04FF0200801E04FF02B08049A72
:1052F800059B002B02DB0492059308E0524263EB06
:105308004303049205934FF02D0800E0D8460DF1B1
:105318003E0300930AAB06AADDE9040120F026FF4C
:105328008146BAF1000F6CDB0DF13E03A3EB0903D4
:105338009DF818206FF386128DF818209A4563D9C6
:10534800AAEB030307930DF13E0A2BE0049828B952
:10535800D846DFF880A1AAF1050923E00DF13E0344
:1053680000930AAB06AA002120F000FF81469DF8B1
:105378001A3043F010038DF81A3078238DF81B305B
:10538800D846CEE72246049906A820F03FFFD84623
:105398000DF13E0A4FF0000904E0D8460DF13E0A2F
:1053A8004FF00009B9F1000F00F08D80AAEB090356
:1053B800B8F1000F00D001339DF81A2012F0100F39
:1053C80025D0023307990B4412F0400F01D0089AF8
:1053D8001344002F31DDFF1A9DF8183013F0040F25
:1053E8002BD113F0400F17D0B8F1000F17D0294672
:1053F8004046B04700286ADB0134D8464FF0300BEE
:105408000FE00DF13E0ACDE70DF13E0ACAE712F0B2
:10541800080FD7D00133D5E74FF0200B01E04FF04C
:10542800300B3B465F1E002B07DD29465846B04728
:1054380000284CDB01343B46F4E7B8F1000F05D0F7
:1054480029464046B047002841DB01349DF81A3010
:10545800C3F30012C3F3C0031A4305D02946302012
:10546800B047002833DB01349DF81A3013F0100FD1
:1054780006D029469DF81B00B047002827DB0134D9
:10548800079B03F1FF38002B07DD29463020B04782
:1054980000281CDB01344346F3E753464A462946B5
:1054A800304620F0D2FE002811DB0444002F07DD2F
:1054B80029462020B047002809DB0134013FF5E7E1
:1054C800DDF8089044E5DDF8089041E5204611B084
:1054D800BDE8F08FF10B040038B504460D462022D4
:1054E800002122F0B5FFEB68E361AB68A3612B688C
:1054F80023626B6863620022A2622A6922612BB16F
:10550800591E0B4202D142F00102226104F12C0023
:105518000122002129F075FA00B938BD054C2E2367
:1055280022460549054820F0B1FE2E21204620F0EC
:10553800A6FE00BFF40B04001C0C04002CF70300AB
:105548002DE9F04F87B002929B46436A013B8B429C
:10555800C0F0DD80054688464FF00009CA4630E0B5
:105568006E4C942322466E496E4820F08FFE3146D9
:105578006D4820F08BFE9421204620F080FE6A6A58
:10558800013A13402B60002430461BF043FF0028EB
:1055980000F0AB8087F31188BFF36F8F74B1B9F156
:1055A800000F0BD09DF8133043B1AB69002B00F00E
:1055B800AB804946284698474FF00009002C00F078
:1055C800A88005F114064FF02003EFF3118783F349
:1055D8001288BFF36F8F019730461BF00BFF00282E
:1055E800BED030461BF026FF05A9284620F05CFEF9
:1055F80004460599414519D32B6A2A6803EB820AA8
:1056080013F822106FF3000103F82210C9B26FF3E8
:10561800410103F822102B6843442A6912F0010F54
:10562800ADD16A6A9342ADD39B1AABE7A8B9029B86
:105638005BEA030303D029F03AF9039088B12A6999
:105648000DF11303C2F340020599284620F08FFE9E
:105658008146041E18BF012496E7284620F05EFE06
:1056680092E730461BF0D6FE08B3019B83F31188FE
:10567800BFF36F8F05F12C00029A5B461CF0F4FB18
:1056880001904FF02003EFF3118783F31288BFF3E3
:105698006F8F30461BF0AEFE0446B8B130461BF0A3
:1056A800C9FE019B002B3FF46FAF039C6CE71B4CBA
:1056B800C22322461D491B4820F0E8FD31461C48FC
:1056C80020F0E4FDC221204620F0D9FD134C94239C
:1056D80022461349134820F0D9FD3146124820F0DC
:1056E800D5FD9421204620F0CAFD0C4CC223224649
:1056F8000E490C4820F0CAFD31460D4820F0C6FD81
:10570800C221204620F0BBFD4FF0000956E74FF0BC
:10571800000A504607B0BDE8F08F00BF280B040010
:10572800880B04002CF70300A00B0400580B04009E
:10573800700B04002DE9F04104460D46C369084684
:105748009847804604F114064FF02003EFF31187C1
:1057580083F31288BFF36F8F30461BF04BFE90B176
:1057680030461BF067FE2B7843F001032B7063680B
:1057780003EB0800236913F0010F13D1636A984201
:1057880013D3C01A11E0174C942322461649174820
:1057980020F07CFD3146164820F078FD9421204603
:1057A80020F06DFD636A013B18406060204620F0E0
:1057B800A2FD30461BF02EFE28B187F31188BFF3F7
:1057C8006F8FBDE8F081074CC2232246094907487C
:1057D80020F05CFD3146084820F058FDC2212046E3
:1057E80020F04DFD280B0400880B04002CF7030063
:1057F800A00B0400580B0400700B04002DE9F041C5
:1058080004464DE04E4C942322464E494E4820F023
:105818003DFD29464D4820F039FD9421204620F0D1
:105828002EFD9B1A55E051F82200800867D15DE0F3
:10583800616A01390B40A360E368034422B9626AD4
:10584800934204D39B1A02E0626A013A1340E36070
:105858001BE011F8223043F0020301F82230A76858
:10586800E369404698473844236913F0010F04D18F
:10587800636A984204D3C01A02E0636A013B184085
:10588800A060002701E00027B84628461BF0C2FDAB
:10589800002842D086F31188BFF36F8F002F4BD0BA
:1058A80004F114054FF02003EFF3118683F31288F7
:1058B800BFF36F8F28461BF09DFD07460028A1D037
:1058C80028461BF0B7FDA26863689A42A9D9636AA3
:1058D8009B1A216A01EB8208002BD4D011F82230E0
:1058E80013F0030316D0022B9DD0002011F82230AC
:1058F80013F0010FADD110B9E36940469847A3688A
:105908000344226912F0010292D1616A8B4292D358
:105918005B1A90E70027B846B7E7094CC22322462E
:105928000B49094820F0B2FC29460A4820F0AEFC91
:10593800C221204620F0A3FC4046BDE8F08100BF0C
:10594800280B0400880B04002CF70300A00B0400AC
:10595800580B0400700B04002DE9F04104460D4675
:10596800C36908469847804604F114064FF020039F
:10597800EFF3118783F31288BFF36F8F30461BF064
:1059880039FDA8B130461BF055FD2B786FF30003A5
:105998002B70236913F0020F19D0236AE26803EB16
:1059A8008203AB4213D02B6868F39F032B6021E07E
:1059B8001F4C942322461F491F4820F067FC31469C
:1059C8001E4820F063FC9421204620F058FC2B78D8
:1059D8006FF341032B70E3684344226912F0010F0F
:1059E80004D1626A934204D39B1A02E0626A013AC4
:1059F8001340E36030461BF00DFD48B187F3118872
:105A0800BFF36F8F04F12C001CF0E6F9BDE8F081BC
:105A1800074CC22322460A49074820F037FC314682
:105A2800084820F033FCC221204620F028FC00BFA3
:105A3800280B0400880B04002CF70300A00B0400BB
:105A4800580B0400700B040068B108B5064A074BF0
:105A58001B680749A1FB03139B0C00FB03F042F0F2
:105A68000103984708BD7047B0F60300748700200B
:105A780083DE1B4338B54FF02003EFF3118583F322
:105A88001288BFF36F8F4FF040230222C3F8D0264D
:105A98000122C3F80427C3F80429C3F8002B002403
:105AA80005E00121064B185D00F050FA0134032C83
:105AB800F7D985F31188BFF36F8F002038BD00BF79
:105AC800540C040030B589B02F4B1B7801332F4A92
